:1001000031A3040621215C001182037E1223131007
:10011000FAAF32A2033E45328B033E4E328C033E91
:1001200043328D031126020E09CD05001148020E3F
:1001300009CD05000E061EFFCD0500B720F6CD0443
:10014000020E061EFFCD0500B728F306802102032C
:10015000CD0402772310F9115C00CDE6011169028C
:100160003CCAAE01118203CDF001118203CDFF0123
:100170001178023CCAAE01115C00CDF501B7201F19
:1001800021020311800006801AAE12132310F91108
:100190008203CDFA01118B02B7C2AE01C377011100
:1001A0008203CDEB011194023C280311A4023E0D01
:1001B000CDD7013E0ACDD7010E09CD0500C3000001
:1001C000F51F1F1F1FCDC901F1F5E60FC69027CE01
:1001D0004027CDD701F1C9F5C5D5E50E025FCD05A4
:1001E00000E1D1C1F1C90E0FC305000E10C3050017
:1001F0000E13C305000E14C305000E15C305000E33
:1002000016C30500E5C506080E00210003CB3E23FA
:10021000CB1E380218082100033EB4AE7737CB1945
:1002200010E879C1E1C94B6F75766F73746F205414
:10023000656C65636F6D2057616E6E6143727920E6
:1002400076302E30310D0A24507265737320612090
:10025000627574746F6E20746F20736565642074AA
:100260006865206B65790D0A246E6F20736F757257
:1002700063652066696C65246E6F206469726563CE
:10028000746F7279207370616365246E6F20737070
:100290006163652477726974652070726F74656339
:1002A00074656424456E637279707465642E2050A1
:1002B0006179207468652072616E736F6D206F665E
:1002C000203120343935203830312031313120345B
:1002D00031362052414820746F204B6F75766F7312
:1002E000746F70616E6B6B6920746F2064656372EC
:1002F00079707420796F75722066696C65732E242D
:02030000DEAD70
:00000001FF
