:1000000075813F75CBFF75CAF375C834759850D2AA
:0F00100099C2980220009021481220CF022000B0
:1020000053A2FE9060207438F011C6740CF011C613
:102010007401F011C67402F011C69020A31134901F
:1020200020AB118D90602074C0F011C611EC783097
:10203000115A80F005A29060207440F011C69060A3
:1020400021780805A2E493A305A2F011BD05A2D84A
:10205000F49060207402F011C622906021E66006C0
:1020600008F011BD80F722902148B40D03022073BF
:10207000022000BF2A0302207C022000BE4203028D
:10208000208502200011CF022000D0E02205A2907E
:10209000602105A2E493600AA305A2F011BD05A288
:1020A00080F222110A0A0011D006224B6F75766F5A
:1020B00073746F2054656C65636F6D0800C0077F93
:1020C00018DFFED007227F0F7EFFDEFEDFFA22E45C
:1020D00093600511E2A380F722E6600511E2088013
:1020E000F8223099FDC299F599229E227830310864
:1020F000B40D02800BB4200040F4F60811E280EE2B
:10210000760090213611CF223098FDC298E59922B1
:1021100090213911CF01002A2A2A205541525420FA
:1021200074657374202A2A2A0D0A00526563656952
:102130007665643A20000D0A00547279696E672052
:1021400068617264657221004449534F4245595B8E
:022150005D0030
:00000001FF
