:1020000075813F75CBFF75CAF375C834759850D28A
:1020100099C29853A2FE9060207438F011D9740CC4
:10202000F011D97401F011D97402F011D99020B6D1
:1020300011479020BE11A090602074C0F011D911FA
:10204000FF7830116D80F005A29060207440F0118F
:10205000D9906021780805A2E493A305A2F011D0DD
:1020600005A2D8F49060207402F011D9229060216A
:10207000E6600608F011D080F722902154B40D03D9
:1020800002208602217BBF2A0302208F02217BBE11
:10209000420302209802217B11E20207D0D0E02205
:1020A00005A290602105A2E493600AA305A2F011A5
:1020B000D005A280F222110A0A0011D006224B6F2D
:1020C00075766F73746F2054656C65636F6D08006F
:1020D000C0077F18DFFED007227F0F7EFFDEFEDF06
:1020E000FA22E493600511F5A380F722E66005115A
:1020F000F50880F8223099FDC299F599229E227840
:1021000030311BB40D02800BB4200040F4F60811EE
:10211000F580EE760090214211E2223098FDC298BF
:10212000E599222A2A2A2055415254207465737455
:10213000202A2A2A0D0A0052656365697665643A89
:1021400020000D0A00547279696E6720686172641C
:10215000657221004449534F4245595B61726520C5
:10216000796F7520696E746F20626F6E6461676548
:102170003F5D0090214511E2020000C0E074411172
:10218000F5742011F5D0E012003C742011F574367E
:1021900011F5742011F5EE12003C742011F574371E
:0D21A00011F5742011F5EF12003C02000053
:00000001FF
